{
  "_format": "hh-sol-artifact-1",
  "contractName": "Banking",
  "sourceName": "contracts/Banking.sol",
  "abi": [
    {
      "inputs": [],
      "stateMutability": "payable",
      "type": "constructor"
    },
    {
      "inputs": [
        {
          "internalType": "uint256",
          "name": "amount",
          "type": "uint256"
        },
        {
          "internalType": "uint256",
          "name": "balance",
          "type": "uint256"
        }
      ],
      "name": "InsufficientFund",
      "type": "error"
    },
    {
      "inputs": [
        {
          "internalType": "address",
          "name": "addr",
          "type": "address"
        }
      ],
      "name": "InvalidAddress",
      "type": "error"
    },
    {
      "inputs": [
        {
          "internalType": "address",
          "name": "addr",
          "type": "address"
        }
      ],
      "name": "UserAlreadyExist",
      "type": "error"
    },
    {
      "inputs": [
        {
          "internalType": "address",
          "name": "addr",
          "type": "address"
        }
      ],
      "name": "UserDoesNotExist",
      "type": "error"
    },
    {
      "anonymous": false,
      "inputs": [
        {
          "indexed": true,
          "internalType": "address",
          "name": "by",
          "type": "address"
        },
        {
          "indexed": false,
          "internalType": "uint256",
          "name": "amount",
          "type": "uint256"
        }
      ],
      "name": "Deposit",
      "type": "event"
    },
    {
      "anonymous": false,
      "inputs": [
        {
          "indexed": true,
          "internalType": "address",
          "name": "from",
          "type": "address"
        },
        {
          "indexed": true,
          "internalType": "address",
          "name": "to",
          "type": "address"
        },
        {
          "indexed": false,
          "internalType": "uint256",
          "name": "amount",
          "type": "uint256"
        }
      ],
      "name": "Transfer",
      "type": "event"
    },
    {
      "anonymous": false,
      "inputs": [
        {
          "indexed": true,
          "internalType": "address",
          "name": "by",
          "type": "address"
        },
        {
          "indexed": false,
          "internalType": "uint256",
          "name": "amount",
          "type": "uint256"
        }
      ],
      "name": "Withdrawal",
      "type": "event"
    },
    {
      "inputs": [
        {
          "internalType": "address",
          "name": "addr",
          "type": "address"
        }
      ],
      "name": "balanceOf",
      "outputs": [
        {
          "internalType": "uint256",
          "name": "",
          "type": "uint256"
        }
      ],
      "stateMutability": "view",
      "type": "function"
    },
    {
      "inputs": [],
      "name": "deposit",
      "outputs": [],
      "stateMutability": "payable",
      "type": "function"
    },
    {
      "inputs": [
        {
          "internalType": "address",
          "name": "addr",
          "type": "address"
        }
      ],
      "name": "getUser",
      "outputs": [
        {
          "internalType": "address",
          "name": "",
          "type": "address"
        },
        {
          "internalType": "uint256",
          "name": "",
          "type": "uint256"
        }
      ],
      "stateMutability": "view",
      "type": "function"
    },
    {
      "inputs": [],
      "name": "myBalance",
      "outputs": [
        {
          "internalType": "uint256",
          "name": "",
          "type": "uint256"
        }
      ],
      "stateMutability": "view",
      "type": "function"
    },
    {
      "inputs": [],
      "name": "register",
      "outputs": [],
      "stateMutability": "nonpayable",
      "type": "function"
    },
    {
      "inputs": [
        {
          "internalType": "address",
          "name": "to",
          "type": "address"
        },
        {
          "internalType": "uint256",
          "name": "amount",
          "type": "uint256"
        }
      ],
      "name": "transfer",
      "outputs": [],
      "stateMutability": "nonpayable",
      "type": "function"
    },
    {
      "inputs": [],
      "name": "vault",
      "outputs": [
        {
          "internalType": "uint256",
          "name": "",
          "type": "uint256"
        }
      ],
      "stateMutability": "view",
      "type": "function"
    },
    {
      "inputs": [
        {
          "internalType": "uint256",
          "name": "amount",
          "type": "uint256"
        }
      ],
      "name": "withdraw",
      "outputs": [],
      "stateMutability": "nonpayable",
      "type": "function"
    },
    {
      "stateMutability": "payable",
      "type": "receive"
    }
  ],
  "bytecode": "0x6080604052336000806101000a81548173ffffffffffffffffffffffffffffffffffffffff021916908373ffffffffffffffffffffffffffffffffffffffff1602179055506200007560008054906101000a900473ffffffffffffffffffffffffffffffffffffffff16620001ab60201b60201c565b34600160008060009054906101000a900473ffffffffffffffffffffffffffffffffffffffff1673ffffffffffffffffffffffffffffffffffffffff1673ffffffffffffffffffffffffffffffffffffffff1681526020019081526020016000206001016000828254620000ea9190620003f9565b9250508190555060003073ffffffffffffffffffffffffffffffffffffffff1634604051620001199062000469565b60006040518083038185875af1925050503d806000811462000158576040519150601f19603f3d011682016040523d82523d6000602084013e6200015d565b606091505b5050905080620001a4576040517f08c379a00000000000000000000000000000000000000000000000000000000081526004016200019b90620004e1565b60405180910390fd5b50620005d7565b80600073ffffffffffffffffffffffffffffffffffffffff168173ffffffffffffffffffffffffffffffffffffffff161415806200021457508073ffffffffffffffffffffffffffffffffffffffff168173ffffffffffffffffffffffffffffffffffffffff16145b62000256576040517f08c379a00000000000000000000000000000000000000000000000000000000081526004016200024d9062000553565b60405180910390fd5b600073ffffffffffffffffffffffffffffffffffffffff16600160008473ffffffffffffffffffffffffffffffffffffffff1673ffffffffffffffffffffffffffffffffffffffff16815260200190815260200160002060000160009054906101000a900473ffffffffffffffffffffffffffffffffffffffff1673ffffffffffffffffffffffffffffffffffffffff16146200032c57816040517f0cdc4dc9000000000000000000000000000000000000000000000000000000008152600401620003239190620005ba565b60405180910390fd5b6000600160008473ffffffffffffffffffffffffffffffffffffffff1673ffffffffffffffffffffffffffffffffffffffff1681526020019081526020016000209050828160000160006101000a81548173ffffffffffffffffffffffffffffffffffffffff021916908373ffffffffffffffffffffffffffffffffffffffff160217905550428160020181905550505050565b6000819050919050565b7f4e487b7100000000000000000000000000000000000000000000000000000000600052601160045260246000fd5b60006200040682620003c0565b91506200041383620003c0565b92508282019050808211156200042e576200042d620003ca565b5b92915050565b600081905092915050565b50565b60006200045160008362000434565b91506200045e826200043f565b600082019050919050565b6000620004768262000442565b9150819050919050565b600082825260208201905092915050565b7f5472616e73616374696f6e204661696c65640000000000000000000000000000600082015250565b6000620004c960128362000480565b9150620004d68262000491565b602082019050919050565b60006020820190508181036000830152620004fc81620004ba565b9050919050565b7f6e6f7420616e20454f4100000000000000000000000000000000000000000000600082015250565b60006200053b600a8362000480565b9150620005488262000503565b602082019050919050565b600060208201905081810360008301526200056e816200052c565b9050919050565b600073ffffffffffffffffffffffffffffffffffffffff82169050919050565b6000620005a28262000575565b9050919050565b620005b48162000595565b82525050565b6000602082019050620005d16000830184620005a9565b92915050565b61133080620005e76000396000f3fe60806040526004361061007f5760003560e01c8063a9059cbb1161004e578063a9059cbb146101ab578063c9116b69146101d4578063d0e30db0146101ff578063fbfa77cf14610209576100eb565b80631aa3a008146100f05780632e1a7d4d146101075780636f77926b1461013057806370a082311461016e576100eb565b366100eb573073ffffffffffffffffffffffffffffffffffffffff163373ffffffffffffffffffffffffffffffffffffffff167fddf252ad1be2c89b69c2b068fc378daa952ba7f163c4a11628f55a4df523b3ef346040516100e19190610f08565b60405180910390a3005b600080fd5b3480156100fc57600080fd5b50610105610234565b005b34801561011357600080fd5b5061012e60048036038101906101299190610f54565b6102ad565b005b34801561013c57600080fd5b5061015760048036038101906101529190610fdf565b610511565b60405161016592919061101b565b60405180910390f35b34801561017a57600080fd5b5061019560048036038101906101909190610fdf565b61060d565b6040516101a29190610f08565b60405180910390f35b3480156101b757600080fd5b506101d260048036038101906101cd9190611044565b6106a3565b005b3480156101e057600080fd5b506101e9610915565b6040516101f69190610f08565b60405180910390f35b610207610993565b005b34801561021557600080fd5b5061021e610be4565b60405161022b9190610f08565b60405180910390f35b3373ffffffffffffffffffffffffffffffffffffffff163273ffffffffffffffffffffffffffffffffffffffff16146102a2576040517f08c379a0000000000000000000000000000000000000000000000000000000008152600401610299906110e1565b60405180910390fd5b6102ab33610bec565b565b3373ffffffffffffffffffffffffffffffffffffffff163273ffffffffffffffffffffffffffffffffffffffff161461031b576040517f08c379a0000000000000000000000000000000000000000000000000000000008152600401610312906110e1565b60405180910390fd5b61032433610dfa565b61036557336040517f1efbf66f00000000000000000000000000000000000000000000000000000000815260040161035c9190611101565b60405180910390fd5b6000600160003373ffffffffffffffffffffffffffffffffffffffff1673ffffffffffffffffffffffffffffffffffffffff168152602001908152602001600020905081816001015410156103f7578181600101546040517f9b0f01da0000000000000000000000000000000000000000000000000000000081526004016103ee92919061111c565b60405180910390fd5b60003373ffffffffffffffffffffffffffffffffffffffff168360405161041d90611176565b60006040518083038185875af1925050503d806000811461045a576040519150601f19603f3d011682016040523d82523d6000602084013e61045f565b606091505b50509050806104a3576040517f08c379a000000000000000000000000000000000000000000000000000000000815260040161049a906111d7565b60405180910390fd5b828260010160008282546104b79190611226565b925050819055503373ffffffffffffffffffffffffffffffffffffffff167f7fcf532c15f0a6db0bd6d0e038bea71d30d808c7d98cb3bf7268a95bf5081b65846040516105049190610f08565b60405180910390a2505050565b60008061051d83610dfa565b61055e57826040517f1efbf66f0000000000000000000000000000000000000000000000000000000081526004016105559190611101565b60405180910390fd5b600160008473ffffffffffffffffffffffffffffffffffffffff1673ffffffffffffffffffffffffffffffffffffffff16815260200190815260200160002060000160009054906101000a900473ffffffffffffffffffffffffffffffffffffffff16600160008573ffffffffffffffffffffffffffffffffffffffff1673ffffffffffffffffffffffffffffffffffffffff1681526020019081526020016000206001015491509150915091565b600061061882610dfa565b61065957816040517f1efbf66f0000000000000000000000000000000000000000000000000000000081526004016106509190611101565b60405180910390fd5b600160008373ffffffffffffffffffffffffffffffffffffffff1673ffffffffffffffffffffffffffffffffffffffff168152602001908152602001600020600101549050919050565b3373ffffffffffffffffffffffffffffffffffffffff163273ffffffffffffffffffffffffffffffffffffffff1614610711576040517f08c379a0000000000000000000000000000000000000000000000000000000008152600401610708906110e1565b60405180910390fd5b61071a33610dfa565b61075b57336040517f1efbf66f0000000000000000000000000000000000000000000000000000000081526004016107529190611101565b60405180910390fd5b61076482610dfa565b6107a557816040517f1efbf66f00000000000000000000000000000000000000000000000000000000815260040161079c9190611101565b60405180910390fd5b6000600160003373ffffffffffffffffffffffffffffffffffffffff1673ffffffffffffffffffffffffffffffffffffffff16815260200190815260200160002090508181600101541015610837578181600101546040517f9b0f01da00000000000000000000000000000000000000000000000000000000815260040161082e92919061111c565b60405180910390fd5b8181600101600082825461084b9190611226565b9250508190555081600160008573ffffffffffffffffffffffffffffffffffffffff1673ffffffffffffffffffffffffffffffffffffffff16815260200190815260200160002060010160008282546108a4919061125a565b925050819055508273ffffffffffffffffffffffffffffffffffffffff163373ffffffffffffffffffffffffffffffffffffffff167fddf252ad1be2c89b69c2b068fc378daa952ba7f163c4a11628f55a4df523b3ef846040516109089190610f08565b60405180910390a3505050565b60003373ffffffffffffffffffffffffffffffffffffffff163273ffffffffffffffffffffffffffffffffffffffff1614610985576040517f08c379a000000000000000000000000000000000000000000000000000000000815260040161097c906110e1565b60405180910390fd5b61098e3361060d565b905090565b3373ffffffffffffffffffffffffffffffffffffffff163273ffffffffffffffffffffffffffffffffffffffff1614610a01576040517f08c379a00000000000000000000000000000000000000000000000000000000081526004016109f8906110e1565b60405180910390fd5b610a0a33610dfa565b610a4b57336040517f1efbf66f000000000000000000000000000000000000000000000000000000008152600401610a429190611101565b60405180910390fd5b60003411610a8e576040517f08c379a0000000000000000000000000000000000000000000000000000000008152600401610a85906112da565b60405180910390fd5b60003073ffffffffffffffffffffffffffffffffffffffff1634604051610ab490611176565b60006040518083038185875af1925050503d8060008114610af1576040519150601f19603f3d011682016040523d82523d6000602084013e610af6565b606091505b5050905080610b3a576040517f08c379a0000000000000000000000000000000000000000000000000000000008152600401610b31906111d7565b60405180910390fd5b34600160003373ffffffffffffffffffffffffffffffffffffffff1673ffffffffffffffffffffffffffffffffffffffff1681526020019081526020016000206001016000828254610b8c919061125a565b925050819055503373ffffffffffffffffffffffffffffffffffffffff167fe1fffcc4923d04b559f4d29a8bfc6cda04eb5b0d3c460751c2402c5c5cc9109c34604051610bd99190610f08565b60405180910390a250565b600047905090565b80600073ffffffffffffffffffffffffffffffffffffffff168173ffffffffffffffffffffffffffffffffffffffff16141580610c5457508073ffffffffffffffffffffffffffffffffffffffff168173ffffffffffffffffffffffffffffffffffffffff16145b610c93576040517f08c379a0000000000000000000000000000000000000000000000000000000008152600401610c8a906110e1565b60405180910390fd5b600073ffffffffffffffffffffffffffffffffffffffff16600160008473ffffffffffffffffffffffffffffffffffffffff1673ffffffffffffffffffffffffffffffffffffffff16815260200190815260200160002060000160009054906101000a900473ffffffffffffffffffffffffffffffffffffffff1673ffffffffffffffffffffffffffffffffffffffff1614610d6657816040517f0cdc4dc9000000000000000000000000000000000000000000000000000000008152600401610d5d9190611101565b60405180910390fd5b6000600160008473ffffffffffffffffffffffffffffffffffffffff1673ffffffffffffffffffffffffffffffffffffffff1681526020019081526020016000209050828160000160006101000a81548173ffffffffffffffffffffffffffffffffffffffff021916908373ffffffffffffffffffffffffffffffffffffffff160217905550428160020181905550505050565b600080600160008473ffffffffffffffffffffffffffffffffffffffff1673ffffffffffffffffffffffffffffffffffffffff168152602001908152602001600020600201541480610eda5750600073ffffffffffffffffffffffffffffffffffffffff16600160008473ffffffffffffffffffffffffffffffffffffffff1673ffffffffffffffffffffffffffffffffffffffff16815260200190815260200160002060000160009054906101000a900473ffffffffffffffffffffffffffffffffffffffff1673ffffffffffffffffffffffffffffffffffffffff16145b610ee5576001610ee8565b60005b9050919050565b6000819050919050565b610f0281610eef565b82525050565b6000602082019050610f1d6000830184610ef9565b92915050565b600080fd5b610f3181610eef565b8114610f3c57600080fd5b50565b600081359050610f4e81610f28565b92915050565b600060208284031215610f6a57610f69610f23565b5b6000610f7884828501610f3f565b91505092915050565b600073ffffffffffffffffffffffffffffffffffffffff82169050919050565b6000610fac82610f81565b9050919050565b610fbc81610fa1565b8114610fc757600080fd5b50565b600081359050610fd981610fb3565b92915050565b600060208284031215610ff557610ff4610f23565b5b600061100384828501610fca565b91505092915050565b61101581610fa1565b82525050565b6000604082019050611030600083018561100c565b61103d6020830184610ef9565b9392505050565b6000806040838503121561105b5761105a610f23565b5b600061106985828601610fca565b925050602061107a85828601610f3f565b9150509250929050565b600082825260208201905092915050565b7f6e6f7420616e20454f4100000000000000000000000000000000000000000000600082015250565b60006110cb600a83611084565b91506110d682611095565b602082019050919050565b600060208201905081810360008301526110fa816110be565b9050919050565b6000602082019050611116600083018461100c565b92915050565b60006040820190506111316000830185610ef9565b61113e6020830184610ef9565b9392505050565b600081905092915050565b50565b6000611160600083611145565b915061116b82611150565b600082019050919050565b600061118182611153565b9150819050919050565b7f5472616e73616374696f6e204661696c65640000000000000000000000000000600082015250565b60006111c1601283611084565b91506111cc8261118b565b602082019050919050565b600060208201905081810360008301526111f0816111b4565b9050919050565b7f4e487b7100000000000000000000000000000000000000000000000000000000600052601160045260246000fd5b600061123182610eef565b915061123c83610eef565b9250828203905081811115611254576112536111f7565b5b92915050565b600061126582610eef565b915061127083610eef565b9250828201905080821115611288576112876111f7565b5b92915050565b7f496e76616c696420416d6f756e74000000000000000000000000000000000000600082015250565b60006112c4600e83611084565b91506112cf8261128e565b602082019050919050565b600060208201905081810360008301526112f3816112b7565b905091905056fea2646970667358221220da8cdab015d695250cef1b9c8c1e83b53dcbe65e958377aed6c5d6ffa2268cd364736f6c63430008130033",
  "linkReferences": {},
  "deployedLinkReferences": {}
}